{
  "_format": "hh-sol-artifact-1",
  "contractName": "FaucetTracker",
  "sourceName": "contracts/FaucetTracker.sol",
  "abi": [
    {
      "inputs": [],
      "stateMutability": "nonpayable",
      "type": "constructor"
    },
    {
      "inputs": [
        {
          "internalType": "address",
          "name": "user",
          "type": "address"
        }
      ],
      "name": "getFaucetInfo",
      "outputs": [
        {
          "components": [
            {
              "internalType": "bool",
              "name": "isReceive",
              "type": "bool"
            },
            {
              "internalType": "bool",
              "name": "isAdminReceive",
              "type": "bool"
            },
            {
              "internalType": "uint256",
              "name": "lastReceivedAt",
              "type": "uint256"
            }
          ],
          "internalType": "struct FaucetTracker.FaucetInfo",
          "name": "",
          "type": "tuple"
        }
      ],
      "stateMutability": "view",
      "type": "function"
    },
    {
      "inputs": [
        {
          "internalType": "address",
          "name": "user",
          "type": "address"
        }
      ],
      "name": "getStatus",
      "outputs": [
        {
          "internalType": "bool",
          "name": "",
          "type": "bool"
        },
        {
          "internalType": "bool",
          "name": "",
          "type": "bool"
        }
      ],
      "stateMutability": "view",
      "type": "function"
    },
    {
      "inputs": [
        {
          "internalType": "address",
          "name": "user",
          "type": "address"
        }
      ],
      "name": "isEligible",
      "outputs": [
        {
          "internalType": "bool",
          "name": "",
          "type": "bool"
        }
      ],
      "stateMutability": "view",
      "type": "function"
    },
    {
      "inputs": [
        {
          "internalType": "address",
          "name": "user",
          "type": "address"
        },
        {
          "internalType": "bool",
          "name": "isAdmin",
          "type": "bool"
        }
      ],
      "name": "markReceived",
      "outputs": [],
      "stateMutability": "nonpayable",
      "type": "function"
    },
    {
      "inputs": [],
      "name": "owner",
      "outputs": [
        {
          "internalType": "address",
          "name": "",
          "type": "address"
        }
      ],
      "stateMutability": "view",
      "type": "function"
    },
    {
      "inputs": [
        {
          "internalType": "address",
          "name": "",
          "type": "address"
        }
      ],
      "name": "records",
      "outputs": [
        {
          "internalType": "bool",
          "name": "isReceive",
          "type": "bool"
        },
        {
          "internalType": "bool",
          "name": "isAdminReceive",
          "type": "bool"
        },
        {
          "internalType": "uint256",
          "name": "lastReceivedAt",
          "type": "uint256"
        }
      ],
      "stateMutability": "view",
      "type": "function"
    },
    {
      "inputs": [
        {
          "internalType": "address",
          "name": "user",
          "type": "address"
        }
      ],
      "name": "reset",
      "outputs": [],
      "stateMutability": "nonpayable",
      "type": "function"
    },
    {
      "inputs": [
        {
          "internalType": "address",
          "name": "user",
          "type": "address"
        }
      ],
      "name": "resetAll",
      "outputs": [],
      "stateMutability": "nonpayable",
      "type": "function"
    },
    {
      "inputs": [
        {
          "internalType": "address",
          "name": "user",
          "type": "address"
        }
      ],
      "name": "setAdminReceived",
      "outputs": [],
      "stateMutability": "nonpayable",
      "type": "function"
    },
    {
      "inputs": [
        {
          "internalType": "address",
          "name": "user",
          "type": "address"
        }
      ],
      "name": "setUserReceived",
      "outputs": [],
      "stateMutability": "nonpayable",
      "type": "function"
    },
    {
      "inputs": [
        {
          "internalType": "address",
          "name": "user",
          "type": "address"
        }
      ],
      "name": "updateLastReceive",
      "outputs": [],
      "stateMutability": "nonpayable",
      "type": "function"
    }
  ],
  "bytecode": "0x608060405234801561001057600080fd5b5033600160006101000a81548173ffffffffffffffffffffffffffffffffffffffff021916908373ffffffffffffffffffffffffffffffffffffffff160217905550610fb8806100616000396000f3fe608060405234801561001057600080fd5b50600436106100a95760003560e01c806366e305fd1161007157806366e305fd146101795780636b8ab97d146101a95780636d7419a8146101c55780638da5cb5b146101e1578063d489b8d3146101ff578063ef0ba44c1461021b576100a9565b806330ccebb5146100ae578063469e9067146100df5780634a2710bd1461011157806359c303ab1461012d57806364c051a21461015d575b600080fd5b6100c860048036038101906100c39190610bdd565b610237565b6040516100d6929190610c25565b60405180910390f35b6100f960048036038101906100f49190610bdd565b6102db565b60405161010893929190610c67565b60405180910390f35b61012b60048036038101906101269190610bdd565b61031f565b005b61014760048036038101906101429190610bdd565b610452565b6040516101549190610cfe565b60405180910390f35b61017760048036038101906101729190610d45565b6104ea565b005b610193600480360381019061018e9190610bdd565b610610565b6040516101a09190610d85565b60405180910390f35b6101c360048036038101906101be9190610bdd565b61071b565b005b6101df60048036038101906101da9190610bdd565b61081f565b005b6101e9610952565b6040516101f69190610daf565b60405180910390f35b61021960048036038101906102149190610bdd565b610978565b005b61023560048036038101906102309190610bdd565b610a7c565b005b60008060008060008573ffffffffffffffffffffffffffffffffffffffff1673ffffffffffffffffffffffffffffffffffffffff1681526020019081526020016000206040518060600160405290816000820160009054906101000a900460ff161515151581526020016000820160019054906101000a900460ff161515151581526020016001820154815250509050806020015181600001519250925050915091565b60006020528060005260406000206000915090508060000160009054906101000a900460ff16908060000160019054906101000a900460ff16908060010154905083565b600160009054906101000a900473ffffffffffffffffffffffffffffffffffffffff1673ffffffffffffffffffffffffffffffffffffffff163373ffffffffffffffffffffffffffffffffffffffff16146103af576040517f08c379a00000000000000000000000000000000000000000000000000000000081526004016103a690610e27565b60405180910390fd5b60016000808373ffffffffffffffffffffffffffffffffffffffff1673ffffffffffffffffffffffffffffffffffffffff16815260200190815260200160002060000160006101000a81548160ff021916908315150217905550426000808373ffffffffffffffffffffffffffffffffffffffff1673ffffffffffffffffffffffffffffffffffffffff1681526020019081526020016000206001018190555050565b61045a610b55565b6000808373ffffffffffffffffffffffffffffffffffffffff1673ffffffffffffffffffffffffffffffffffffffff1681526020019081526020016000206040518060600160405290816000820160009054906101000a900460ff161515151581526020016000820160019054906101000a900460ff161515151581526020016001820154815250509050919050565b600160009054906101000a900473ffffffffffffffffffffffffffffffffffffffff1673ffffffffffffffffffffffffffffffffffffffff163373ffffffffffffffffffffffffffffffffffffffff161461057a576040517f08c379a000000000000000000000000000000000000000000000000000000000815260040161057190610e27565b60405180910390fd5b60008060008473ffffffffffffffffffffffffffffffffffffffff1673ffffffffffffffffffffffffffffffffffffffff168152602001908152602001600020905081156105e45760018160000160016101000a81548160ff021916908315150217905550610602565b60018160000160006101000a81548160ff0219169083151502179055505b428160010181905550505050565b60008073ffffffffffffffffffffffffffffffffffffffff168273ffffffffffffffffffffffffffffffffffffffff1603610680576040517f08c379a000000000000000000000000000000000000000000000000000000000815260040161067790610e93565b60405180910390fd5b42620151806000808573ffffffffffffffffffffffffffffffffffffffff1673ffffffffffffffffffffffffffffffffffffffff168152602001908152602001600020600101546106d19190610ee2565b1115610712576040517f08c379a000000000000000000000000000000000000000000000000000000000815260040161070990610f62565b60405180910390fd5b60019050919050565b600160009054906101000a900473ffffffffffffffffffffffffffffffffffffffff1673ffffffffffffffffffffffffffffffffffffffff163373ffffffffffffffffffffffffffffffffffffffff16146107ab576040517f08c379a00000000000000000000000000000000000000000000000000000000081526004016107a290610e27565b60405180910390fd5b6000808273ffffffffffffffffffffffffffffffffffffffff1673ffffffffffffffffffffffffffffffffffffffff168152602001908152602001600020600080820160006101000a81549060ff02191690556000820160016101000a81549060ff02191690556001820160009055505050565b600160009054906101000a900473ffffffffffffffffffffffffffffffffffffffff1673ffffffffffffffffffffffffffffffffffffffff163373ffffffffffffffffffffffffffffffffffffffff16146108af576040517f08c379a00000000000000000000000000000000000000000000000000000000081526004016108a690610e27565b60405180910390fd5b60016000808373ffffffffffffffffffffffffffffffffffffffff1673ffffffffffffffffffffffffffffffffffffffff16815260200190815260200160002060000160016101000a81548160ff021916908315150217905550426000808373ffffffffffffffffffffffffffffffffffffffff1673ffffffffffffffffffffffffffffffffffffffff1681526020019081526020016000206001018190555050565b600160009054906101000a900473ffffffffffffffffffffffffffffffffffffffff1681565b600160009054906101000a900473ffffffffffffffffffffffffffffffffffffffff1673ffffffffffffffffffffffffffffffffffffffff163373ffffffffffffffffffffffffffffffffffffffff1614610a08576040517f08c379a00000000000000000000000000000000000000000000000000000000081526004016109ff90610e27565b60405180910390fd5b6000808273ffffffffffffffffffffffffffffffffffffffff1673ffffffffffffffffffffffffffffffffffffffff168152602001908152602001600020600080820160006101000a81549060ff02191690556000820160016101000a81549060ff02191690556001820160009055505050565b600160009054906101000a900473ffffffffffffffffffffffffffffffffffffffff1673ffffffffffffffffffffffffffffffffffffffff163373ffffffffffffffffffffffffffffffffffffffff1614610b0c576040517f08c379a0000000000000000000000000000000000000000000000000000000008152600401610b0390610e27565b60405180910390fd5b426000808373ffffffffffffffffffffffffffffffffffffffff1673ffffffffffffffffffffffffffffffffffffffff1681526020019081526020016000206001018190555050565b6040518060600160405280600015158152602001600015158152602001600081525090565b600080fd5b600073ffffffffffffffffffffffffffffffffffffffff82169050919050565b6000610baa82610b7f565b9050919050565b610bba81610b9f565b8114610bc557600080fd5b50565b600081359050610bd781610bb1565b92915050565b600060208284031215610bf357610bf2610b7a565b5b6000610c0184828501610bc8565b91505092915050565b60008115159050919050565b610c1f81610c0a565b82525050565b6000604082019050610c3a6000830185610c16565b610c476020830184610c16565b9392505050565b6000819050919050565b610c6181610c4e565b82525050565b6000606082019050610c7c6000830186610c16565b610c896020830185610c16565b610c966040830184610c58565b949350505050565b610ca781610c0a565b82525050565b610cb681610c4e565b82525050565b606082016000820151610cd26000850182610c9e565b506020820151610ce56020850182610c9e565b506040820151610cf86040850182610cad565b50505050565b6000606082019050610d136000830184610cbc565b92915050565b610d2281610c0a565b8114610d2d57600080fd5b50565b600081359050610d3f81610d19565b92915050565b60008060408385031215610d5c57610d5b610b7a565b5b6000610d6a85828601610bc8565b9250506020610d7b85828601610d30565b9150509250929050565b6000602082019050610d9a6000830184610c16565b92915050565b610da981610b9f565b82525050565b6000602082019050610dc46000830184610da0565b92915050565b600082825260208201905092915050565b7f4e4f545f4f574e45520000000000000000000000000000000000000000000000600082015250565b6000610e11600983610dca565b9150610e1c82610ddb565b602082019050919050565b60006020820190508181036000830152610e4081610e04565b9050919050565b7f5a65726f2061646472657373206e6f7420616c6c6f7765640000000000000000600082015250565b6000610e7d601883610dca565b9150610e8882610e47565b602082019050919050565b60006020820190508181036000830152610eac81610e70565b9050919050565b7f4e487b7100000000000000000000000000000000000000000000000000000000600052601160045260246000fd5b6000610eed82610c4e565b9150610ef883610c4e565b9250828201905080821115610f1057610f0f610eb3565b5b92915050565b7f546f6f20736f6f6e20746f207265717565737420616761696e00000000000000600082015250565b6000610f4c601983610dca565b9150610f5782610f16565b602082019050919050565b60006020820190508181036000830152610f7b81610f3f565b905091905056fea26469706673582212206324456b9bc15ca9d62f398adde656c5525c9c92544f95d0cdcae128b2540cdb64736f6c63430008140033",
  "linkReferences": {},
  "deployedLinkReferences": {}
}