{
  "_format": "hh-sol-artifact-1",
  "contractName": "FaucetTracker",
  "sourceName": "contracts/FaucetTracker.sol",
  "abi": [
    {
      "inputs": [],
      "stateMutability": "nonpayable",
      "type": "constructor"
    },
    {
      "inputs": [],
      "name": "cooldown",
      "outputs": [
        {
          "internalType": "uint256",
          "name": "",
          "type": "uint256"
        }
      ],
      "stateMutability": "view",
      "type": "function"
    },
    {
      "inputs": [
        {
          "internalType": "address",
          "name": "user",
          "type": "address"
        },
        {
          "internalType": "string",
          "name": "chain",
          "type": "string"
        }
      ],
      "name": "getLastReceivedAt",
      "outputs": [
        {
          "internalType": "uint256",
          "name": "",
          "type": "uint256"
        }
      ],
      "stateMutability": "view",
      "type": "function"
    },
    {
      "inputs": [
        {
          "internalType": "address",
          "name": "",
          "type": "address"
        }
      ],
      "name": "isAdminReceive",
      "outputs": [
        {
          "internalType": "bool",
          "name": "",
          "type": "bool"
        }
      ],
      "stateMutability": "view",
      "type": "function"
    },
    {
      "inputs": [
        {
          "internalType": "address",
          "name": "user",
          "type": "address"
        },
        {
          "internalType": "string",
          "name": "chain",
          "type": "string"
        }
      ],
      "name": "isEligible",
      "outputs": [
        {
          "internalType": "bool",
          "name": "",
          "type": "bool"
        }
      ],
      "stateMutability": "view",
      "type": "function"
    },
    {
      "inputs": [
        {
          "internalType": "address",
          "name": "",
          "type": "address"
        }
      ],
      "name": "isReceive",
      "outputs": [
        {
          "internalType": "bool",
          "name": "",
          "type": "bool"
        }
      ],
      "stateMutability": "view",
      "type": "function"
    },
    {
      "inputs": [
        {
          "internalType": "address",
          "name": "",
          "type": "address"
        },
        {
          "internalType": "string",
          "name": "",
          "type": "string"
        }
      ],
      "name": "lastReceivedAt",
      "outputs": [
        {
          "internalType": "uint256",
          "name": "",
          "type": "uint256"
        }
      ],
      "stateMutability": "view",
      "type": "function"
    },
    {
      "inputs": [],
      "name": "owner",
      "outputs": [
        {
          "internalType": "address",
          "name": "",
          "type": "address"
        }
      ],
      "stateMutability": "view",
      "type": "function"
    },
    {
      "inputs": [
        {
          "internalType": "address",
          "name": "user",
          "type": "address"
        },
        {
          "internalType": "string",
          "name": "chain",
          "type": "string"
        }
      ],
      "name": "reset",
      "outputs": [],
      "stateMutability": "nonpayable",
      "type": "function"
    },
    {
      "inputs": [
        {
          "internalType": "address",
          "name": "user",
          "type": "address"
        },
        {
          "internalType": "string",
          "name": "chain",
          "type": "string"
        }
      ],
      "name": "setAdminReceived",
      "outputs": [],
      "stateMutability": "nonpayable",
      "type": "function"
    },
    {
      "inputs": [
        {
          "internalType": "uint256",
          "name": "newCooldown",
          "type": "uint256"
        }
      ],
      "name": "setCooldown",
      "outputs": [],
      "stateMutability": "nonpayable",
      "type": "function"
    },
    {
      "inputs": [
        {
          "internalType": "bool",
          "name": "mode",
          "type": "bool"
        }
      ],
      "name": "setTestingMode",
      "outputs": [],
      "stateMutability": "nonpayable",
      "type": "function"
    },
    {
      "inputs": [
        {
          "internalType": "address",
          "name": "user",
          "type": "address"
        },
        {
          "internalType": "string",
          "name": "chain",
          "type": "string"
        }
      ],
      "name": "setUserReceived",
      "outputs": [],
      "stateMutability": "nonpayable",
      "type": "function"
    },
    {
      "inputs": [],
      "name": "testingMode",
      "outputs": [
        {
          "internalType": "bool",
          "name": "",
          "type": "bool"
        }
      ],
      "stateMutability": "view",
      "type": "function"
    }
  ],
  "bytecode": "0x6080604052620151806004556000600560006101000a81548160ff02191690831515021790555034801561003257600080fd5b50336000806101000a81548173ffffffffffffffffffffffffffffffffffffffff021916908373ffffffffffffffffffffffffffffffffffffffff160217905550610f90806100826000396000f3fe608060405234801561001057600080fd5b50600436106100ce5760003560e01c806381d67fda1161008c5780638da5cb5b116100665780638da5cb5b146102355780639096e5c114610253578063c8f35b5d1461026f578063fef3fc491461028d576100ce565b806381d67fda146101b95780638a241aa3146101d55780638bfcb48d14610205576100ce565b80625383c5146100d3578063067422c114610103578063237fb81f146101335780634fc3f41a14610163578063596d7a681461017f578063787a08a61461019b575b600080fd5b6100ed60048036038101906100e89190610ac1565b6102a9565b6040516100fa9190610b3a565b60405180910390f35b61011d60048036038101906101189190610ac1565b610312565b60405161012a9190610b70565b60405180910390f35b61014d60048036038101906101489190610b8b565b6103b0565b60405161015a9190610b70565b60405180910390f35b61017d60048036038101906101789190610be4565b6103d0565b005b61019960048036038101906101949190610c3d565b610468565b005b6101a3610513565b6040516101b09190610b3a565b60405180910390f35b6101d360048036038101906101ce9190610ac1565b610519565b005b6101ef60048036038101906101ea9190610b8b565b610665565b6040516101fc9190610b70565b60405180910390f35b61021f600480360381019061021a9190610dab565b610685565b60405161022c9190610b3a565b60405180910390f35b61023d6106c0565b60405161024a9190610e16565b60405180910390f35b61026d60048036038101906102689190610ac1565b6106e4565b005b61027761088a565b6040516102849190610b70565b60405180910390f35b6102a760048036038101906102a29190610ac1565b61089d565b005b6000600360008573ffffffffffffffffffffffffffffffffffffffff1673ffffffffffffffffffffffffffffffffffffffff16815260200190815260200160002083836040516102fa929190610e61565b90815260200160405180910390205490509392505050565b6000600560009054906101000a900460ff161561033257600190506103a9565b6000600360008673ffffffffffffffffffffffffffffffffffffffff1673ffffffffffffffffffffffffffffffffffffffff1681526020019081526020016000208484604051610383929190610e61565b9081526020016040518091039020549050600454816103a29190610ea9565b4210159150505b9392505050565b60026020528060005260406000206000915054906101000a900460ff1681565b60008054906101000a900473ffffffffffffffffffffffffffffffffffffffff1673ffffffffffffffffffffffffffffffffffffffff163373ffffffffffffffffffffffffffffffffffffffff161461045e576040517f08c379a000000000000000000000000000000000000000000000000000000000815260040161045590610f3a565b60405180910390fd5b8060048190555050565b60008054906101000a900473ffffffffffffffffffffffffffffffffffffffff1673ffffffffffffffffffffffffffffffffffffffff163373ffffffffffffffffffffffffffffffffffffffff16146104f6576040517f08c379a00000000000000000000000000000000000000000000000000000000081526004016104ed90610f3a565b60405180910390fd5b80600560006101000a81548160ff02191690831515021790555050565b60045481565b60008054906101000a900473ffffffffffffffffffffffffffffffffffffffff1673ffffffffffffffffffffffffffffffffffffffff163373ffffffffffffffffffffffffffffffffffffffff16146105a7576040517f08c379a000000000000000000000000000000000000000000000000000000000815260040161059e90610f3a565b60405180910390fd5b60018060008573ffffffffffffffffffffffffffffffffffffffff1673ffffffffffffffffffffffffffffffffffffffff16815260200190815260200160002060006101000a81548160ff02191690831515021790555042600360008573ffffffffffffffffffffffffffffffffffffffff1673ffffffffffffffffffffffffffffffffffffffff168152602001908152602001600020838360405161064e929190610e61565b908152602001604051809103902081905550505050565b60016020528060005260406000206000915054906101000a900460ff1681565b600360205281600052604060002081805160208101820180518482526020830160208501208183528095505050505050600091509150505481565b60008054906101000a900473ffffffffffffffffffffffffffffffffffffffff1681565b60008054906101000a900473ffffffffffffffffffffffffffffffffffffffff1673ffffffffffffffffffffffffffffffffffffffff163373ffffffffffffffffffffffffffffffffffffffff1614610772576040517f08c379a000000000000000000000000000000000000000000000000000000000815260040161076990610f3a565b60405180910390fd5b6000600360008573ffffffffffffffffffffffffffffffffffffffff1673ffffffffffffffffffffffffffffffffffffffff16815260200190815260200160002083836040516107c3929190610e61565b9081526020016040518091039020819055506000600160008573ffffffffffffffffffffffffffffffffffffffff1673ffffffffffffffffffffffffffffffffffffffff16815260200190815260200160002060006101000a81548160ff0219169083151502179055506000600260008573ffffffffffffffffffffffffffffffffffffffff1673ffffffffffffffffffffffffffffffffffffffff16815260200190815260200160002060006101000a81548160ff021916908315150217905550505050565b600560009054906101000a900460ff1681565b60008054906101000a900473ffffffffffffffffffffffffffffffffffffffff1673ffffffffffffffffffffffffffffffffffffffff163373ffffffffffffffffffffffffffffffffffffffff161461092b576040517f08c379a000000000000000000000000000000000000000000000000000000000815260040161092290610f3a565b60405180910390fd5b6001600260008573ffffffffffffffffffffffffffffffffffffffff1673ffffffffffffffffffffffffffffffffffffffff16815260200190815260200160002060006101000a81548160ff02191690831515021790555042600360008573ffffffffffffffffffffffffffffffffffffffff1673ffffffffffffffffffffffffffffffffffffffff16815260200190815260200160002083836040516109d3929190610e61565b908152602001604051809103902081905550505050565b6000604051905090565b600080fd5b600080fd5b600073ffffffffffffffffffffffffffffffffffffffff82169050919050565b6000610a29826109fe565b9050919050565b610a3981610a1e565b8114610a4457600080fd5b50565b600081359050610a5681610a30565b92915050565b600080fd5b600080fd5b600080fd5b60008083601f840112610a8157610a80610a5c565b5b8235905067ffffffffffffffff811115610a9e57610a9d610a61565b5b602083019150836001820283011115610aba57610ab9610a66565b5b9250929050565b600080600060408486031215610ada57610ad96109f4565b5b6000610ae886828701610a47565b935050602084013567ffffffffffffffff811115610b0957610b086109f9565b5b610b1586828701610a6b565b92509250509250925092565b6000819050919050565b610b3481610b21565b82525050565b6000602082019050610b4f6000830184610b2b565b92915050565b60008115159050919050565b610b6a81610b55565b82525050565b6000602082019050610b856000830184610b61565b92915050565b600060208284031215610ba157610ba06109f4565b5b6000610baf84828501610a47565b91505092915050565b610bc181610b21565b8114610bcc57600080fd5b50565b600081359050610bde81610bb8565b92915050565b600060208284031215610bfa57610bf96109f4565b5b6000610c0884828501610bcf565b91505092915050565b610c1a81610b55565b8114610c2557600080fd5b50565b600081359050610c3781610c11565b92915050565b600060208284031215610c5357610c526109f4565b5b6000610c6184828501610c28565b91505092915050565b600080fd5b6000601f19601f8301169050919050565b7f4e487b7100000000000000000000000000000000000000000000000000000000600052604160045260246000fd5b610cb882610c6f565b810181811067ffffffffffffffff82111715610cd757610cd6610c80565b5b80604052505050565b6000610cea6109ea565b9050610cf68282610caf565b919050565b600067ffffffffffffffff821115610d1657610d15610c80565b5b610d1f82610c6f565b9050602081019050919050565b82818337600083830152505050565b6000610d4e610d4984610cfb565b610ce0565b905082815260208101848484011115610d6a57610d69610c6a565b5b610d75848285610d2c565b509392505050565b600082601f830112610d9257610d91610a5c565b5b8135610da2848260208601610d3b565b91505092915050565b60008060408385031215610dc257610dc16109f4565b5b6000610dd085828601610a47565b925050602083013567ffffffffffffffff811115610df157610df06109f9565b5b610dfd85828601610d7d565b9150509250929050565b610e1081610a1e565b82525050565b6000602082019050610e2b6000830184610e07565b92915050565b600081905092915050565b6000610e488385610e31565b9350610e55838584610d2c565b82840190509392505050565b6000610e6e828486610e3c565b91508190509392505050565b7f4e487b7100000000000000000000000000000000000000000000000000000000600052601160045260246000fd5b6000610eb482610b21565b9150610ebf83610b21565b9250828201905080821115610ed757610ed6610e7a565b5b92915050565b600082825260208201905092915050565b7f4f4e4c595f4f574e455200000000000000000000000000000000000000000000600082015250565b6000610f24600a83610edd565b9150610f2f82610eee565b602082019050919050565b60006020820190508181036000830152610f5381610f17565b905091905056fea2646970667358221220e96897dfcb9b3d31324a1dd6ba47db28e20aa68471150257bf227cfde5f58efc64736f6c63430008140033",
  "linkReferences": {},
  "deployedLinkReferences": {}
}